{
  "_format": "hh-sol-artifact-1",
  "contractName": "PollyComponentToken",
  "sourceName": "contracts/PollyComponentToken.sol",
  "abi": [
    {
      "inputs": [],
      "stateMutability": "nonpayable",
      "type": "constructor"
    },
    {
      "anonymous": false,
      "inputs": [
        {
          "indexed": true,
          "internalType": "address",
          "name": "owner",
          "type": "address"
        },
        {
          "indexed": true,
          "internalType": "address",
          "name": "approved",
          "type": "address"
        },
        {
          "indexed": true,
          "internalType": "uint256",
          "name": "tokenId",
          "type": "uint256"
        }
      ],
      "name": "Approval",
      "type": "event"
    },
    {
      "anonymous": false,
      "inputs": [
        {
          "indexed": true,
          "internalType": "address",
          "name": "owner",
          "type": "address"
        },
        {
          "indexed": true,
          "internalType": "address",
          "name": "operator",
          "type": "address"
        },
        {
          "indexed": false,
          "internalType": "bool",
          "name": "approved",
          "type": "bool"
        }
      ],
      "name": "ApprovalForAll",
      "type": "event"
    },
    {
      "anonymous": false,
      "inputs": [
        {
          "indexed": true,
          "internalType": "address",
          "name": "previousOwner",
          "type": "address"
        },
        {
          "indexed": true,
          "internalType": "address",
          "name": "newOwner",
          "type": "address"
        }
      ],
      "name": "OwnershipTransferred",
      "type": "event"
    },
    {
      "anonymous": false,
      "inputs": [
        {
          "indexed": true,
          "internalType": "address",
          "name": "from",
          "type": "address"
        },
        {
          "indexed": true,
          "internalType": "address",
          "name": "to",
          "type": "address"
        },
        {
          "indexed": true,
          "internalType": "uint256",
          "name": "tokenId",
          "type": "uint256"
        }
      ],
      "name": "Transfer",
      "type": "event"
    },
    {
      "inputs": [
        {
          "internalType": "address",
          "name": "to",
          "type": "address"
        },
        {
          "internalType": "uint256",
          "name": "tokenId",
          "type": "uint256"
        }
      ],
      "name": "approve",
      "outputs": [],
      "stateMutability": "nonpayable",
      "type": "function"
    },
    {
      "inputs": [
        {
          "internalType": "address",
          "name": "owner",
          "type": "address"
        }
      ],
      "name": "balanceOf",
      "outputs": [
        {
          "internalType": "uint256",
          "name": "",
          "type": "uint256"
        }
      ],
      "stateMutability": "view",
      "type": "function"
    },
    {
      "inputs": [
        {
          "internalType": "uint256",
          "name": "tokenId",
          "type": "uint256"
        }
      ],
      "name": "burn",
      "outputs": [],
      "stateMutability": "nonpayable",
      "type": "function"
    },
    {
      "inputs": [
        {
          "internalType": "uint256",
          "name": "tokenId",
          "type": "uint256"
        }
      ],
      "name": "getApproved",
      "outputs": [
        {
          "internalType": "address",
          "name": "",
          "type": "address"
        }
      ],
      "stateMutability": "view",
      "type": "function"
    },
    {
      "inputs": [],
      "name": "initialize",
      "outputs": [],
      "stateMutability": "nonpayable",
      "type": "function"
    },
    {
      "inputs": [
        {
          "internalType": "address",
          "name": "owner",
          "type": "address"
        },
        {
          "internalType": "address",
          "name": "operator",
          "type": "address"
        }
      ],
      "name": "isApprovedForAll",
      "outputs": [
        {
          "internalType": "bool",
          "name": "",
          "type": "bool"
        }
      ],
      "stateMutability": "view",
      "type": "function"
    },
    {
      "inputs": [
        {
          "internalType": "address",
          "name": "owner",
          "type": "address"
        },
        {
          "internalType": "uint256",
          "name": "offset",
          "type": "uint256"
        },
        {
          "internalType": "uint256",
          "name": "limit",
          "type": "uint256"
        }
      ],
      "name": "listLatestTokens",
      "outputs": [
        {
          "components": [
            {
              "internalType": "uint256",
              "name": "id",
              "type": "uint256"
            },
            {
              "internalType": "string",
              "name": "uri",
              "type": "string"
            }
          ],
          "internalType": "struct PollyComponentToken.TokenURI[]",
          "name": "",
          "type": "tuple[]"
        }
      ],
      "stateMutability": "view",
      "type": "function"
    },
    {
      "inputs": [],
      "name": "name",
      "outputs": [
        {
          "internalType": "string",
          "name": "",
          "type": "string"
        }
      ],
      "stateMutability": "view",
      "type": "function"
    },
    {
      "inputs": [],
      "name": "owner",
      "outputs": [
        {
          "internalType": "address",
          "name": "",
          "type": "address"
        }
      ],
      "stateMutability": "view",
      "type": "function"
    },
    {
      "inputs": [
        {
          "internalType": "uint256",
          "name": "tokenId",
          "type": "uint256"
        }
      ],
      "name": "ownerOf",
      "outputs": [
        {
          "internalType": "address",
          "name": "",
          "type": "address"
        }
      ],
      "stateMutability": "view",
      "type": "function"
    },
    {
      "inputs": [],
      "name": "renounceOwnership",
      "outputs": [],
      "stateMutability": "nonpayable",
      "type": "function"
    },
    {
      "inputs": [
        {
          "internalType": "address",
          "name": "to",
          "type": "address"
        },
        {
          "internalType": "string",
          "name": "uri",
          "type": "string"
        }
      ],
      "name": "safeMint",
      "outputs": [],
      "stateMutability": "nonpayable",
      "type": "function"
    },
    {
      "inputs": [
        {
          "internalType": "address",
          "name": "from",
          "type": "address"
        },
        {
          "internalType": "address",
          "name": "to",
          "type": "address"
        },
        {
          "internalType": "uint256",
          "name": "tokenId",
          "type": "uint256"
        }
      ],
      "name": "safeTransferFrom",
      "outputs": [],
      "stateMutability": "nonpayable",
      "type": "function"
    },
    {
      "inputs": [
        {
          "internalType": "address",
          "name": "from",
          "type": "address"
        },
        {
          "internalType": "address",
          "name": "to",
          "type": "address"
        },
        {
          "internalType": "uint256",
          "name": "tokenId",
          "type": "uint256"
        },
        {
          "internalType": "bytes",
          "name": "_data",
          "type": "bytes"
        }
      ],
      "name": "safeTransferFrom",
      "outputs": [],
      "stateMutability": "nonpayable",
      "type": "function"
    },
    {
      "inputs": [
        {
          "internalType": "address",
          "name": "operator",
          "type": "address"
        },
        {
          "internalType": "bool",
          "name": "approved",
          "type": "bool"
        }
      ],
      "name": "setApprovalForAll",
      "outputs": [],
      "stateMutability": "nonpayable",
      "type": "function"
    },
    {
      "inputs": [
        {
          "internalType": "bytes4",
          "name": "interfaceId",
          "type": "bytes4"
        }
      ],
      "name": "supportsInterface",
      "outputs": [
        {
          "internalType": "bool",
          "name": "",
          "type": "bool"
        }
      ],
      "stateMutability": "view",
      "type": "function"
    },
    {
      "inputs": [],
      "name": "symbol",
      "outputs": [
        {
          "internalType": "string",
          "name": "",
          "type": "string"
        }
      ],
      "stateMutability": "view",
      "type": "function"
    },
    {
      "inputs": [
        {
          "internalType": "uint256",
          "name": "index",
          "type": "uint256"
        }
      ],
      "name": "tokenByIndex",
      "outputs": [
        {
          "internalType": "uint256",
          "name": "",
          "type": "uint256"
        }
      ],
      "stateMutability": "view",
      "type": "function"
    },
    {
      "inputs": [
        {
          "internalType": "address",
          "name": "owner",
          "type": "address"
        },
        {
          "internalType": "uint256",
          "name": "index",
          "type": "uint256"
        }
      ],
      "name": "tokenOfOwnerByIndex",
      "outputs": [
        {
          "internalType": "uint256",
          "name": "",
          "type": "uint256"
        }
      ],
      "stateMutability": "view",
      "type": "function"
    },
    {
      "inputs": [
        {
          "internalType": "uint256",
          "name": "tokenId",
          "type": "uint256"
        }
      ],
      "name": "tokenURI",
      "outputs": [
        {
          "internalType": "string",
          "name": "",
          "type": "string"
        }
      ],
      "stateMutability": "view",
      "type": "function"
    },
    {
      "inputs": [],
      "name": "totalSupply",
      "outputs": [
        {
          "internalType": "uint256",
          "name": "",
          "type": "uint256"
        }
      ],
      "stateMutability": "view",
      "type": "function"
    },
    {
      "inputs": [
        {
          "internalType": "address",
          "name": "from",
          "type": "address"
        },
        {
          "internalType": "address",
          "name": "to",
          "type": "address"
        },
        {
          "internalType": "uint256",
          "name": "tokenId",
          "type": "uint256"
        }
      ],
      "name": "transferFrom",
      "outputs": [],
      "stateMutability": "nonpayable",
      "type": "function"
    },
    {
      "inputs": [
        {
          "internalType": "address",
          "name": "newOwner",
          "type": "address"
        }
      ],
      "name": "transferOwnership",
      "outputs": [],
      "stateMutability": "nonpayable",
      "type": "function"
    }
  ],
  "bytecode": "0x60806040523480156200001157600080fd5b50600060019054906101000a900460ff166200003c5760008054906101000a900460ff16156200004d565b6200004c6200010960201b60201c565b5b6200008f576040517f08c379a00000000000000000000000000000000000000000000000000000000081526004016200008690620001d1565b60405180910390fd5b60008060019054906101000a900460ff161590508015620000e0576001600060016101000a81548160ff02191690831515021790555060016000806101000a81548160ff0219169083151502179055505b8015620001025760008060016101000a81548160ff0219169083151502179055505b50620001f3565b600062000121306200012760201b620010b91760201c565b15905090565b6000808273ffffffffffffffffffffffffffffffffffffffff163b119050919050565b600082825260208201905092915050565b7f496e697469616c697a61626c653a20636f6e747261637420697320616c72656160008201527f647920696e697469616c697a6564000000000000000000000000000000000000602082015250565b6000620001b9602e836200014a565b9150620001c6826200015b565b604082019050919050565b60006020820190508181036000830152620001ec81620001aa565b9050919050565b6143d880620002036000396000f3fe608060405234801561001057600080fd5b506004361061014d5760003560e01c80636352211e116100c3578063a22cb4651161007c578063a22cb4651461039e578063b88d4fde146103ba578063c87b56dd146103d6578063d204c45e14610406578063e985e9c514610422578063f2fde38b146104525761014d565b80636352211e146102ee57806370a082311461031e578063715018a61461034e5780638129fc1c146103585780638da5cb5b1461036257806395d89b41146103805761014d565b806323b872dd1161011557806323b872dd1461020a5780632f745c5914610226578063397672591461025657806342842e0e1461028657806342966c68146102a25780634f6ccce7146102be5761014d565b806301ffc9a71461015257806306fdde0314610182578063081812fc146101a0578063095ea7b3146101d057806318160ddd146101ec575b600080fd5b61016c60048036038101906101679190612b66565b61046e565b6040516101799190612bae565b60405180910390f35b61018a610480565b6040516101979190612c62565b60405180910390f35b6101ba60048036038101906101b59190612cba565b610512565b6040516101c79190612d28565b60405180910390f35b6101ea60048036038101906101e59190612d6f565b610597565b005b6101f46106af565b6040516102019190612dbe565b60405180910390f35b610224600480360381019061021f9190612dd9565b6106bc565b005b610240600480360381019061023b9190612d6f565b61071c565b60405161024d9190612dbe565b60405180910390f35b610270600480360381019061026b9190612e2c565b6107c1565b60405161027d9190612fd7565b60405180910390f35b6102a0600480360381019061029b9190612dd9565b61095c565b005b6102bc60048036038101906102b79190612cba565b61097c565b005b6102d860048036038101906102d39190612cba565b6109d8565b6040516102e59190612dbe565b60405180910390f35b61030860048036038101906103039190612cba565b610a49565b6040516103159190612d28565b60405180910390f35b61033860048036038101906103339190612ff9565b610afb565b6040516103459190612dbe565b60405180910390f35b610356610bb3565b005b610360610c3b565b005b61036a610db3565b6040516103779190612d28565b60405180910390f35b610388610dde565b6040516103959190612c62565b60405180910390f35b6103b860048036038101906103b39190613052565b610e70565b005b6103d460048036038101906103cf91906131c7565b610e86565b005b6103f060048036038101906103eb9190612cba565b610ee8565b6040516103fd9190612c62565b60405180910390f35b610420600480360381019061041b91906132eb565b610efa565b005b61043c60048036038101906104379190613347565b610f2d565b6040516104499190612bae565b60405180910390f35b61046c60048036038101906104679190612ff9565b610fc1565b005b6000610479826110dc565b9050919050565b60606065805461048f906133b6565b80601f01602080910402602001604051908101604052809291908181526020018280546104bb906133b6565b80156105085780601f106104dd57610100808354040283529160200191610508565b820191906000526020600020905b8154815290600101906020018083116104eb57829003601f168201915b5050505050905090565b600061051d82611156565b61055c576040517f08c379a00000000000000000000000000000000000000000000000000000000081526004016105539061345a565b60405180910390fd5b6069600083815260200190815260200160002060009054906101000a900473ffffffffffffffffffffffffffffffffffffffff169050919050565b60006105a282610a49565b90508073ffffffffffffffffffffffffffffffffffffffff168373ffffffffffffffffffffffffffffffffffffffff161415610613576040517f08c379a000000000000000000000000000000000000000000000000000000000815260040161060a906134ec565b60405180910390fd5b8073ffffffffffffffffffffffffffffffffffffffff166106326111c2565b73ffffffffffffffffffffffffffffffffffffffff16148061066157506106608161065b6111c2565b610f2d565b5b6106a0576040517f08c379a00000000000000000000000000000000000000000000000000000000081526004016106979061357e565b60405180910390fd5b6106aa83836111ca565b505050565b6000609980549050905090565b6106cd6106c76111c2565b82611283565b61070c576040517f08c379a000000000000000000000000000000000000000000000000000000000815260040161070390613610565b60405180910390fd5b610717838383611361565b505050565b600061072783610afb565b8210610768576040517f08c379a000000000000000000000000000000000000000000000000000000000815260040161075f906136a2565b60405180910390fd5b609760008473ffffffffffffffffffffffffffffffffffffffff1673ffffffffffffffffffffffffffffffffffffffff168152602001908152602001600020600083815260200190815260200160002054905092915050565b606060006107ce85610afb565b905080841015806107e0575060008311155b1561084257600067ffffffffffffffff811115610800576107ff61309c565b5b60405190808252806020026020018201604052801561083957816020015b6108266129fd565b81526020019060019003908161081e5790505b50915050610955565b60006108636108528560146115c8565b868461085e91906136f1565b6115c8565b905060008167ffffffffffffffff8111156108815761088061309c565b5b6040519080825280602002602001820160405280156108ba57816020015b6108a76129fd565b81526020019060019003908161089f5790505b50905060005b8281101561094d57600081886001876108d991906136f1565b6108e391906136f1565b6108ed91906136f1565b905060006108fb8a8361071c565b9050604051806040016040528082815260200161091783610ee8565b81525084848151811061092d5761092c613725565b5b60200260200101819052505050808061094590613754565b9150506108c0565b508093505050505b9392505050565b61097783838360405180602001604052806000815250610e86565b505050565b61098d6109876111c2565b82611283565b6109cc576040517f08c379a00000000000000000000000000000000000000000000000000000000081526004016109c39061380f565b60405180910390fd5b6109d5816115e1565b50565b60006109e26106af565b8210610a23576040517f08c379a0000000000000000000000000000000000000000000000000000000008152600401610a1a906138a1565b60405180910390fd5b60998281548110610a3757610a36613725565b5b90600052602060002001549050919050565b6000806067600084815260200190815260200160002060009054906101000a900473ffffffffffffffffffffffffffffffffffffffff169050600073ffffffffffffffffffffffffffffffffffffffff168173ffffffffffffffffffffffffffffffffffffffff161415610af2576040517f08c379a0000000000000000000000000000000000000000000000000000000008152600401610ae990613933565b60405180910390fd5b80915050919050565b60008073ffffffffffffffffffffffffffffffffffffffff168273ffffffffffffffffffffffffffffffffffffffff161415610b6c576040517f08c379a0000000000000000000000000000000000000000000000000000000008152600401610b63906139c5565b60405180910390fd5b606860008373ffffffffffffffffffffffffffffffffffffffff1673ffffffffffffffffffffffffffffffffffffffff168152602001908152602001600020549050919050565b610bbb6111c2565b73ffffffffffffffffffffffffffffffffffffffff16610bd9610db3565b73ffffffffffffffffffffffffffffffffffffffff1614610c2f576040517f08c379a0000000000000000000000000000000000000000000000000000000008152600401610c2690613a31565b60405180910390fd5b610c3960006115ed565b565b600060019054906101000a900460ff16610c635760008054906101000a900460ff1615610c6c565b610c6b6116b5565b5b610cab576040517f08c379a0000000000000000000000000000000000000000000000000000000008152600401610ca290613ac3565b60405180910390fd5b60008060019054906101000a900460ff161590508015610cfb576001600060016101000a81548160ff02191690831515021790555060016000806101000a81548160ff0219169083151502179055505b610d6f6040518060400160405280601381526020017f506f6c6c79436f6d706f6e656e74546f6b656e000000000000000000000000008152506040518060400160405280600381526020017f504c4300000000000000000000000000000000000000000000000000000000008152506116c6565b610d77611723565b610d7f611774565b610d876117c5565b610d8f611816565b8015610db05760008060016101000a81548160ff0219169083151502179055505b50565b600061012d60009054906101000a900473ffffffffffffffffffffffffffffffffffffffff16905090565b606060668054610ded906133b6565b80601f0160208091040260200160405190810160405280929190818152602001828054610e19906133b6565b8015610e665780601f10610e3b57610100808354040283529160200191610e66565b820191906000526020600020905b815481529060010190602001808311610e4957829003601f168201915b5050505050905090565b610e82610e7b6111c2565b838361186f565b5050565b610e97610e916111c2565b83611283565b610ed6576040517f08c379a0000000000000000000000000000000000000000000000000000000008152600401610ecd90613610565b60405180910390fd5b610ee2848484846119dc565b50505050565b6060610ef382611a38565b9050919050565b6000610f0761015f611b8a565b9050610f1461015f611b98565b610f1e8382611bae565b610f288183611bcc565b505050565b6000606a60008473ffffffffffffffffffffffffffffffffffffffff1673ffffffffffffffffffffffffffffffffffffffff16815260200190815260200160002060008373ffffffffffffffffffffffffffffffffffffffff1673ffffffffffffffffffffffffffffffffffffffff16815260200190815260200160002060009054906101000a900460ff16905092915050565b610fc96111c2565b73ffffffffffffffffffffffffffffffffffffffff16610fe7610db3565b73ffffffffffffffffffffffffffffffffffffffff161461103d576040517f08c379a000000000000000000000000000000000000000000000000000000000815260040161103490613a31565b60405180910390fd5b600073ffffffffffffffffffffffffffffffffffffffff168173ffffffffffffffffffffffffffffffffffffffff1614156110ad576040517f08c379a00000000000000000000000000000000000000000000000000000000081526004016110a490613b55565b60405180910390fd5b6110b6816115ed565b50565b6000808273ffffffffffffffffffffffffffffffffffffffff163b119050919050565b60007f780e9d63000000000000000000000000000000000000000000000000000000007bffffffffffffffffffffffffffffffffffffffffffffffffffffffff1916827bffffffffffffffffffffffffffffffffffffffffffffffffffffffff1916148061114f575061114e82611c40565b5b9050919050565b60008073ffffffffffffffffffffffffffffffffffffffff166067600084815260200190815260200160002060009054906101000a900473ffffffffffffffffffffffffffffffffffffffff1673ffffffffffffffffffffffffffffffffffffffff1614159050919050565b600033905090565b816069600083815260200190815260200160002060006101000a81548173ffffffffffffffffffffffffffffffffffffffff021916908373ffffffffffffffffffffffffffffffffffffffff160217905550808273ffffffffffffffffffffffffffffffffffffffff1661123d83610a49565b73ffffffffffffffffffffffffffffffffffffffff167f8c5be1e5ebec7d5bd14f71427d1e84f3dd0314c0f7b2291e5b200ac8c7c3b92560405160405180910390a45050565b600061128e82611156565b6112cd576040517f08c379a00000000000000000000000000000000000000000000000000000000081526004016112c490613be7565b60405180910390fd5b60006112d883610a49565b90508073ffffffffffffffffffffffffffffffffffffffff168473ffffffffffffffffffffffffffffffffffffffff16148061134757508373ffffffffffffffffffffffffffffffffffffffff1661132f84610512565b73ffffffffffffffffffffffffffffffffffffffff16145b8061135857506113578185610f2d565b5b91505092915050565b8273ffffffffffffffffffffffffffffffffffffffff1661138182610a49565b73ffffffffffffffffffffffffffffffffffffffff16146113d7576040517f08c379a00000000000000000000000000000000000000000000000000000000081526004016113ce90613c79565b60405180910390fd5b600073ffffffffffffffffffffffffffffffffffffffff168273ffffffffffffffffffffffffffffffffffffffff161415611447576040517f08c379a000000000000000000000000000000000000000000000000000000000815260040161143e90613d0b565b60405180910390fd5b611452838383611d22565b61145d6000826111ca565b6001606860008573ffffffffffffffffffffffffffffffffffffffff1673ffffffffffffffffffffffffffffffffffffffff16815260200190815260200160002060008282546114ad91906136f1565b925050819055506001606860008473ffffffffffffffffffffffffffffffffffffffff1673ffffffffffffffffffffffffffffffffffffffff16815260200190815260200160002060008282546115049190613d2b565b92505081905550816067600083815260200190815260200160002060006101000a81548173ffffffffffffffffffffffffffffffffffffffff021916908373ffffffffffffffffffffffffffffffffffffffff160217905550808273ffffffffffffffffffffffffffffffffffffffff168473ffffffffffffffffffffffffffffffffffffffff167fddf252ad1be2c89b69c2b068fc378daa952ba7f163c4a11628f55a4df523b3ef60405160405180910390a46115c3838383611d32565b505050565b60008183106115d757816115d9565b825b905092915050565b6115ea81611d37565b50565b600061012d60009054906101000a900473ffffffffffffffffffffffffffffffffffffffff1690508161012d60006101000a81548173ffffffffffffffffffffffffffffffffffffffff021916908373ffffffffffffffffffffffffffffffffffffffff1602179055508173ffffffffffffffffffffffffffffffffffffffff168173ffffffffffffffffffffffffffffffffffffffff167f8be0079c531659141344cd1fd0a4f28419497f9722a3daafe3b4186f6b6457e060405160405180910390a35050565b60006116c0306110b9565b15905090565b600060019054906101000a900460ff16611715576040517f08c379a000000000000000000000000000000000000000000000000000000000815260040161170c90613df3565b60405180910390fd5b61171f8282611d8a565b5050565b600060019054906101000a900460ff16611772576040517f08c379a000000000000000000000000000000000000000000000000000000000815260040161176990613df3565b60405180910390fd5b565b600060019054906101000a900460ff166117c3576040517f08c379a00000000000000000000000000000000000000000000000000000000081526004016117ba90613df3565b60405180910390fd5b565b600060019054906101000a900460ff16611814576040517f08c379a000000000000000000000000000000000000000000000000000000000815260040161180b90613df3565b60405180910390fd5b565b600060019054906101000a900460ff16611865576040517f08c379a000000000000000000000000000000000000000000000000000000000815260040161185c90613df3565b60405180910390fd5b61186d611e0b565b565b8173ffffffffffffffffffffffffffffffffffffffff168373ffffffffffffffffffffffffffffffffffffffff1614156118de576040517f08c379a00000000000000000000000000000000000000000000000000000000081526004016118d590613e5f565b60405180910390fd5b80606a60008573ffffffffffffffffffffffffffffffffffffffff1673ffffffffffffffffffffffffffffffffffffffff16815260200190815260200160002060008473ffffffffffffffffffffffffffffffffffffffff1673ffffffffffffffffffffffffffffffffffffffff16815260200190815260200160002060006101000a81548160ff0219169083151502179055508173ffffffffffffffffffffffffffffffffffffffff168373ffffffffffffffffffffffffffffffffffffffff167f17307eab39ab6107e8899845ad3d59bd9653f200f220920489ca2b5937696c31836040516119cf9190612bae565b60405180910390a3505050565b6119e7848484611361565b6119f384848484611e6c565b611a32576040517f08c379a0000000000000000000000000000000000000000000000000000000008152600401611a2990613ef1565b60405180910390fd5b50505050565b6060611a4382611156565b611a82576040517f08c379a0000000000000000000000000000000000000000000000000000000008152600401611a7990613f83565b60405180910390fd5b600060c960008481526020019081526020016000208054611aa2906133b6565b80601f0160208091040260200160405190810160405280929190818152602001828054611ace906133b6565b8015611b1b5780601f10611af057610100808354040283529160200191611b1b565b820191906000526020600020905b815481529060010190602001808311611afe57829003601f168201915b505050505090506000611b2c612003565b9050600081511415611b42578192505050611b85565b600082511115611b77578082604051602001611b5f929190613fdf565b60405160208183030381529060405292505050611b85565b611b808461201a565b925050505b919050565b600081600001549050919050565b6001816000016000828254019250508190555050565b611bc88282604051806020016040528060008152506120c1565b5050565b611bd582611156565b611c14576040517f08c379a0000000000000000000000000000000000000000000000000000000008152600401611c0b90614075565b60405180910390fd5b8060c960008481526020019081526020016000209080519060200190611c3b929190612a17565b505050565b60007f80ac58cd000000000000000000000000000000000000000000000000000000007bffffffffffffffffffffffffffffffffffffffffffffffffffffffff1916827bffffffffffffffffffffffffffffffffffffffffffffffffffffffff19161480611d0b57507f5b5e139f000000000000000000000000000000000000000000000000000000007bffffffffffffffffffffffffffffffffffffffffffffffffffffffff1916827bffffffffffffffffffffffffffffffffffffffffffffffffffffffff1916145b80611d1b5750611d1a8261211c565b5b9050919050565b611d2d838383612186565b505050565b505050565b611d408161229a565b600060c960008381526020019081526020016000208054611d60906133b6565b905014611d875760c960008281526020019081526020016000206000611d869190612a9d565b5b50565b600060019054906101000a900460ff16611dd9576040517f08c379a0000000000000000000000000000000000000000000000000000000008152600401611dd090613df3565b60405180910390fd5b8160659080519060200190611def929190612a17565b508060669080519060200190611e06929190612a17565b505050565b600060019054906101000a900460ff16611e5a576040517f08c379a0000000000000000000000000000000000000000000000000000000008152600401611e5190613df3565b60405180910390fd5b611e6a611e656111c2565b6115ed565b565b6000611e8d8473ffffffffffffffffffffffffffffffffffffffff166110b9565b15611ff6578373ffffffffffffffffffffffffffffffffffffffff1663150b7a02611eb66111c2565b8786866040518563ffffffff1660e01b8152600401611ed894939291906140ea565b602060405180830381600087803b158015611ef257600080fd5b505af1925050508015611f2357506040513d601f19601f82011682018060405250810190611f20919061414b565b60015b611fa6573d8060008114611f53576040519150601f19603f3d011682016040523d82523d6000602084013e611f58565b606091505b50600081511415611f9e576040517f08c379a0000000000000000000000000000000000000000000000000000000008152600401611f9590613ef1565b60405180910390fd5b805181602001fd5b63150b7a0260e01b7bffffffffffffffffffffffffffffffffffffffffffffffffffffffff1916817bffffffffffffffffffffffffffffffffffffffffffffffffffffffff191614915050611ffb565b600190505b949350505050565b606060405180602001604052806000815250905090565b606061202582611156565b612064576040517f08c379a000000000000000000000000000000000000000000000000000000000815260040161205b906141ea565b60405180910390fd5b600061206e612003565b9050600081511161208e57604051806020016040528060008152506120b9565b80612098846123b7565b6040516020016120a9929190613fdf565b6040516020818303038152906040525b915050919050565b6120cb8383612518565b6120d86000848484611e6c565b612117576040517f08c379a000000000000000000000000000000000000000000000000000000000815260040161210e90613ef1565b60405180910390fd5b505050565b60007f01ffc9a7000000000000000000000000000000000000000000000000000000007bffffffffffffffffffffffffffffffffffffffffffffffffffffffff1916827bffffffffffffffffffffffffffffffffffffffffffffffffffffffff1916149050919050565b6121918383836126f2565b600073ffffffffffffffffffffffffffffffffffffffff168373ffffffffffffffffffffffffffffffffffffffff1614156121d4576121cf816126f7565b612213565b8173ffffffffffffffffffffffffffffffffffffffff168373ffffffffffffffffffffffffffffffffffffffff1614612212576122118382612740565b5b5b600073ffffffffffffffffffffffffffffffffffffffff168273ffffffffffffffffffffffffffffffffffffffff16141561225657612251816128ad565b612295565b8273ffffffffffffffffffffffffffffffffffffffff168273ffffffffffffffffffffffffffffffffffffffff161461229457612293828261297e565b5b5b505050565b60006122a582610a49565b90506122b381600084611d22565b6122be6000836111ca565b6001606860008373ffffffffffffffffffffffffffffffffffffffff1673ffffffffffffffffffffffffffffffffffffffff168152602001908152602001600020600082825461230e91906136f1565b925050819055506067600083815260200190815260200160002060006101000a81549073ffffffffffffffffffffffffffffffffffffffff021916905581600073ffffffffffffffffffffffffffffffffffffffff168273ffffffffffffffffffffffffffffffffffffffff167fddf252ad1be2c89b69c2b068fc378daa952ba7f163c4a11628f55a4df523b3ef60405160405180910390a46123b381600084611d32565b5050565b606060008214156123ff576040518060400160405280600181526020017f30000000000000000000000000000000000000000000000000000000000000008152509050612513565b600082905060005b6000821461243157808061241a90613754565b915050600a8261242a9190614239565b9150612407565b60008167ffffffffffffffff81111561244d5761244c61309c565b5b6040519080825280601f01601f19166020018201604052801561247f5781602001600182028036833780820191505090505b5090505b6000851461250c5760018261249891906136f1565b9150600a856124a7919061426a565b60306124b39190613d2b565b60f81b8183815181106124c9576124c8613725565b5b60200101907effffffffffffffffffffffffffffffffffffffffffffffffffffffffffffff1916908160001a905350600a856125059190614239565b9450612483565b8093505050505b919050565b600073ffffffffffffffffffffffffffffffffffffffff168273ffffffffffffffffffffffffffffffffffffffff161415612588576040517f08c379a000000000000000000000000000000000000000000000000000000000815260040161257f906142e7565b60405180910390fd5b61259181611156565b156125d1576040517f08c379a00000000000000000000000000000000000000000000000000000000081526004016125c890614353565b60405180910390fd5b6125dd60008383611d22565b6001606860008473ffffffffffffffffffffffffffffffffffffffff1673ffffffffffffffffffffffffffffffffffffffff168152602001908152602001600020600082825461262d9190613d2b565b92505081905550816067600083815260200190815260200160002060006101000a81548173ffffffffffffffffffffffffffffffffffffffff021916908373ffffffffffffffffffffffffffffffffffffffff160217905550808273ffffffffffffffffffffffffffffffffffffffff16600073ffffffffffffffffffffffffffffffffffffffff167fddf252ad1be2c89b69c2b068fc378daa952ba7f163c4a11628f55a4df523b3ef60405160405180910390a46126ee60008383611d32565b5050565b505050565b609980549050609a600083815260200190815260200160002081905550609981908060018154018082558091505060019003906000526020600020016000909190919091505550565b6000600161274d84610afb565b61275791906136f1565b905060006098600084815260200190815260200160002054905081811461283c576000609760008673ffffffffffffffffffffffffffffffffffffffff1673ffffffffffffffffffffffffffffffffffffffff168152602001908152602001600020600084815260200190815260200160002054905080609760008773ffffffffffffffffffffffffffffffffffffffff1673ffffffffffffffffffffffffffffffffffffffff168152602001908152602001600020600084815260200190815260200160002081905550816098600083815260200190815260200160002081905550505b6098600084815260200190815260200160002060009055609760008573ffffffffffffffffffffffffffffffffffffffff1673ffffffffffffffffffffffffffffffffffffffff16815260200190815260200160002060008381526020019081526020016000206000905550505050565b600060016099805490506128c191906136f1565b90506000609a60008481526020019081526020016000205490506000609983815481106128f1576128f0613725565b5b90600052602060002001549050806099838154811061291357612912613725565b5b906000526020600020018190555081609a600083815260200190815260200160002081905550609a600085815260200190815260200160002060009055609980548061296257612961614373565b5b6001900381819060005260206000200160009055905550505050565b600061298983610afb565b905081609760008573ffffffffffffffffffffffffffffffffffffffff1673ffffffffffffffffffffffffffffffffffffffff168152602001908152602001600020600083815260200190815260200160002081905550806098600084815260200190815260200160002081905550505050565b604051806040016040528060008152602001606081525090565b828054612a23906133b6565b90600052602060002090601f016020900481019282612a455760008555612a8c565b82601f10612a5e57805160ff1916838001178555612a8c565b82800160010185558215612a8c579182015b82811115612a8b578251825591602001919060010190612a70565b5b509050612a999190612add565b5090565b508054612aa9906133b6565b6000825580601f10612abb5750612ada565b601f016020900490600052602060002090810190612ad99190612add565b5b50565b5b80821115612af6576000816000905550600101612ade565b5090565b6000604051905090565b600080fd5b600080fd5b60007fffffffff0000000000000000000000000000000000000000000000000000000082169050919050565b612b4381612b0e565b8114612b4e57600080fd5b50565b600081359050612b6081612b3a565b92915050565b600060208284031215612b7c57612b7b612b04565b5b6000612b8a84828501612b51565b91505092915050565b60008115159050919050565b612ba881612b93565b82525050565b6000602082019050612bc36000830184612b9f565b92915050565b600081519050919050565b600082825260208201905092915050565b60005b83811015612c03578082015181840152602081019050612be8565b83811115612c12576000848401525b50505050565b6000601f19601f8301169050919050565b6000612c3482612bc9565b612c3e8185612bd4565b9350612c4e818560208601612be5565b612c5781612c18565b840191505092915050565b60006020820190508181036000830152612c7c8184612c29565b905092915050565b6000819050919050565b612c9781612c84565b8114612ca257600080fd5b50565b600081359050612cb481612c8e565b92915050565b600060208284031215612cd057612ccf612b04565b5b6000612cde84828501612ca5565b91505092915050565b600073ffffffffffffffffffffffffffffffffffffffff82169050919050565b6000612d1282612ce7565b9050919050565b612d2281612d07565b82525050565b6000602082019050612d3d6000830184612d19565b92915050565b612d4c81612d07565b8114612d5757600080fd5b50565b600081359050612d6981612d43565b92915050565b60008060408385031215612d8657612d85612b04565b5b6000612d9485828601612d5a565b9250506020612da585828601612ca5565b9150509250929050565b612db881612c84565b82525050565b6000602082019050612dd36000830184612daf565b92915050565b600080600060608486031215612df257612df1612b04565b5b6000612e0086828701612d5a565b9350506020612e1186828701612d5a565b9250506040612e2286828701612ca5565b9150509250925092565b600080600060608486031215612e4557612e44612b04565b5b6000612e5386828701612d5a565b9350506020612e6486828701612ca5565b9250506040612e7586828701612ca5565b9150509250925092565b600081519050919050565b600082825260208201905092915050565b6000819050602082019050919050565b612eb481612c84565b82525050565b600082825260208201905092915050565b6000612ed682612bc9565b612ee08185612eba565b9350612ef0818560208601612be5565b612ef981612c18565b840191505092915050565b6000604083016000830151612f1c6000860182612eab565b5060208301518482036020860152612f348282612ecb565b9150508091505092915050565b6000612f4d8383612f04565b905092915050565b6000602082019050919050565b6000612f6d82612e7f565b612f778185612e8a565b935083602082028501612f8985612e9b565b8060005b85811015612fc55784840389528151612fa68582612f41565b9450612fb183612f55565b925060208a01995050600181019050612f8d565b50829750879550505050505092915050565b60006020820190508181036000830152612ff18184612f62565b905092915050565b60006020828403121561300f5761300e612b04565b5b600061301d84828501612d5a565b91505092915050565b61302f81612b93565b811461303a57600080fd5b50565b60008135905061304c81613026565b92915050565b6000806040838503121561306957613068612b04565b5b600061307785828601612d5a565b92505060206130888582860161303d565b9150509250929050565b600080fd5b600080fd5b7f4e487b7100000000000000000000000000000000000000000000000000000000600052604160045260246000fd5b6130d482612c18565b810181811067ffffffffffffffff821117156130f3576130f261309c565b5b80604052505050565b6000613106612afa565b905061311282826130cb565b919050565b600067ffffffffffffffff8211156131325761313161309c565b5b61313b82612c18565b9050602081019050919050565b82818337600083830152505050565b600061316a61316584613117565b6130fc565b90508281526020810184848401111561318657613185613097565b5b613191848285613148565b509392505050565b600082601f8301126131ae576131ad613092565b5b81356131be848260208601613157565b91505092915050565b600080600080608085870312156131e1576131e0612b04565b5b60006131ef87828801612d5a565b945050602061320087828801612d5a565b935050604061321187828801612ca5565b925050606085013567ffffffffffffffff81111561323257613231612b09565b5b61323e87828801613199565b91505092959194509250565b600067ffffffffffffffff8211156132655761326461309c565b5b61326e82612c18565b9050602081019050919050565b600061328e6132898461324a565b6130fc565b9050828152602081018484840111156132aa576132a9613097565b5b6132b5848285613148565b509392505050565b600082601f8301126132d2576132d1613092565b5b81356132e284826020860161327b565b91505092915050565b6000806040838503121561330257613301612b04565b5b600061331085828601612d5a565b925050602083013567ffffffffffffffff81111561333157613330612b09565b5b61333d858286016132bd565b9150509250929050565b6000806040838503121561335e5761335d612b04565b5b600061336c85828601612d5a565b925050602061337d85828601612d5a565b9150509250929050565b7f4e487b7100000000000000000000000000000000000000000000000000000000600052602260045260246000fd5b600060028204905060018216806133ce57607f821691505b602082108114156133e2576133e1613387565b5b50919050565b7f4552433732313a20617070726f76656420717565727920666f72206e6f6e657860008201527f697374656e7420746f6b656e0000000000000000000000000000000000000000602082015250565b6000613444602c83612bd4565b915061344f826133e8565b604082019050919050565b6000602082019050818103600083015261347381613437565b9050919050565b7f4552433732313a20617070726f76616c20746f2063757272656e74206f776e6560008201527f7200000000000000000000000000000000000000000000000000000000000000602082015250565b60006134d6602183612bd4565b91506134e18261347a565b604082019050919050565b60006020820190508181036000830152613505816134c9565b9050919050565b7f4552433732313a20617070726f76652063616c6c6572206973206e6f74206f7760008201527f6e6572206e6f7220617070726f76656420666f7220616c6c0000000000000000602082015250565b6000613568603883612bd4565b91506135738261350c565b604082019050919050565b600060208201905081810360008301526135978161355b565b9050919050565b7f4552433732313a207472616e736665722063616c6c6572206973206e6f74206f60008201527f776e6572206e6f7220617070726f766564000000000000000000000000000000602082015250565b60006135fa603183612bd4565b91506136058261359e565b604082019050919050565b60006020820190508181036000830152613629816135ed565b9050919050565b7f455243373231456e756d657261626c653a206f776e657220696e646578206f7560008201527f74206f6620626f756e6473000000000000000000000000000000000000000000602082015250565b600061368c602b83612bd4565b915061369782613630565b604082019050919050565b600060208201905081810360008301526136bb8161367f565b9050919050565b7f4e487b7100000000000000000000000000000000000000000000000000000000600052601160045260246000fd5b60006136fc82612c84565b915061370783612c84565b92508282101561371a576137196136c2565b5b828203905092915050565b7f4e487b7100000000000000000000000000000000000000000000000000000000600052603260045260246000fd5b600061375f82612c84565b91507fffffffffffffffffffffffffffffffffffffffffffffffffffffffffffffffff821415613792576137916136c2565b5b600182019050919050565b7f4552433732314275726e61626c653a2063616c6c6572206973206e6f74206f7760008201527f6e6572206e6f7220617070726f76656400000000000000000000000000000000602082015250565b60006137f9603083612bd4565b91506138048261379d565b604082019050919050565b60006020820190508181036000830152613828816137ec565b9050919050565b7f455243373231456e756d657261626c653a20676c6f62616c20696e646578206f60008201527f7574206f6620626f756e64730000000000000000000000000000000000000000602082015250565b600061388b602c83612bd4565b91506138968261382f565b604082019050919050565b600060208201905081810360008301526138ba8161387e565b9050919050565b7f4552433732313a206f776e657220717565727920666f72206e6f6e657869737460008201527f656e7420746f6b656e0000000000000000000000000000000000000000000000602082015250565b600061391d602983612bd4565b9150613928826138c1565b604082019050919050565b6000602082019050818103600083015261394c81613910565b9050919050565b7f4552433732313a2062616c616e636520717565727920666f7220746865207a6560008201527f726f206164647265737300000000000000000000000000000000000000000000602082015250565b60006139af602a83612bd4565b91506139ba82613953565b604082019050919050565b600060208201905081810360008301526139de816139a2565b9050919050565b7f4f776e61626c653a2063616c6c6572206973206e6f7420746865206f776e6572600082015250565b6000613a1b602083612bd4565b9150613a26826139e5565b602082019050919050565b60006020820190508181036000830152613a4a81613a0e565b9050919050565b7f496e697469616c697a61626c653a20636f6e747261637420697320616c72656160008201527f647920696e697469616c697a6564000000000000000000000000000000000000602082015250565b6000613aad602e83612bd4565b9150613ab882613a51565b604082019050919050565b60006020820190508181036000830152613adc81613aa0565b9050919050565b7f4f776e61626c653a206e6577206f776e657220697320746865207a65726f206160008201527f6464726573730000000000000000000000000000000000000000000000000000602082015250565b6000613b3f602683612bd4565b9150613b4a82613ae3565b604082019050919050565b60006020820190508181036000830152613b6e81613b32565b9050919050565b7f4552433732313a206f70657261746f7220717565727920666f72206e6f6e657860008201527f697374656e7420746f6b656e0000000000000000000000000000000000000000602082015250565b6000613bd1602c83612bd4565b9150613bdc82613b75565b604082019050919050565b60006020820190508181036000830152613c0081613bc4565b9050919050565b7f4552433732313a207472616e736665722066726f6d20696e636f72726563742060008201527f6f776e6572000000000000000000000000000000000000000000000000000000602082015250565b6000613c63602583612bd4565b9150613c6e82613c07565b604082019050919050565b60006020820190508181036000830152613c9281613c56565b9050919050565b7f4552433732313a207472616e7366657220746f20746865207a65726f2061646460008201527f7265737300000000000000000000000000000000000000000000000000000000602082015250565b6000613cf5602483612bd4565b9150613d0082613c99565b604082019050919050565b60006020820190508181036000830152613d2481613ce8565b9050919050565b6000613d3682612c84565b9150613d4183612c84565b9250827fffffffffffffffffffffffffffffffffffffffffffffffffffffffffffffffff03821115613d7657613d756136c2565b5b828201905092915050565b7f496e697469616c697a61626c653a20636f6e7472616374206973206e6f74206960008201527f6e697469616c697a696e67000000000000000000000000000000000000000000602082015250565b6000613ddd602b83612bd4565b9150613de882613d81565b604082019050919050565b60006020820190508181036000830152613e0c81613dd0565b9050919050565b7f4552433732313a20617070726f766520746f2063616c6c657200000000000000600082015250565b6000613e49601983612bd4565b9150613e5482613e13565b602082019050919050565b60006020820190508181036000830152613e7881613e3c565b9050919050565b7f4552433732313a207472616e7366657220746f206e6f6e20455243373231526560008201527f63656976657220696d706c656d656e7465720000000000000000000000000000602082015250565b6000613edb603283612bd4565b9150613ee682613e7f565b604082019050919050565b60006020820190508181036000830152613f0a81613ece565b9050919050565b7f45524337323155524953746f726167653a2055524920717565727920666f722060008201527f6e6f6e6578697374656e7420746f6b656e000000000000000000000000000000602082015250565b6000613f6d603183612bd4565b9150613f7882613f11565b604082019050919050565b60006020820190508181036000830152613f9c81613f60565b9050919050565b600081905092915050565b6000613fb982612bc9565b613fc38185613fa3565b9350613fd3818560208601612be5565b80840191505092915050565b6000613feb8285613fae565b9150613ff78284613fae565b91508190509392505050565b7f45524337323155524953746f726167653a2055524920736574206f66206e6f6e60008201527f6578697374656e7420746f6b656e000000000000000000000000000000000000602082015250565b600061405f602e83612bd4565b915061406a82614003565b604082019050919050565b6000602082019050818103600083015261408e81614052565b9050919050565b600081519050919050565b600082825260208201905092915050565b60006140bc82614095565b6140c681856140a0565b93506140d6818560208601612be5565b6140df81612c18565b840191505092915050565b60006080820190506140ff6000830187612d19565b61410c6020830186612d19565b6141196040830185612daf565b818103606083015261412b81846140b1565b905095945050505050565b60008151905061414581612b3a565b92915050565b60006020828403121561416157614160612b04565b5b600061416f84828501614136565b91505092915050565b7f4552433732314d657461646174613a2055524920717565727920666f72206e6f60008201527f6e6578697374656e7420746f6b656e0000000000000000000000000000000000602082015250565b60006141d4602f83612bd4565b91506141df82614178565b604082019050919050565b60006020820190508181036000830152614203816141c7565b9050919050565b7f4e487b7100000000000000000000000000000000000000000000000000000000600052601260045260246000fd5b600061424482612c84565b915061424f83612c84565b92508261425f5761425e61420a565b5b828204905092915050565b600061427582612c84565b915061428083612c84565b9250826142905761428f61420a565b5b828206905092915050565b7f4552433732313a206d696e7420746f20746865207a65726f2061646472657373600082015250565b60006142d1602083612bd4565b91506142dc8261429b565b602082019050919050565b60006020820190508181036000830152614300816142c4565b9050919050565b7f4552433732313a20746f6b656e20616c7265616479206d696e74656400000000600082015250565b600061433d601c83612bd4565b915061434882614307565b602082019050919050565b6000602082019050818103600083015261436c81614330565b9050919050565b7f4e487b7100000000000000000000000000000000000000000000000000000000600052603160045260246000fdfea26469706673582212208460ceb38b30155e3f750db57f93965341fb985c075bd456a8c24d6b8c8e90e164736f6c63430008090033",
  "linkReferences": {},
  "deployedLinkReferences": {}
}